:100000000C9477000C9494000C9494000C9494003D
:100010000C9494000C9494000C9494000C94940010
:100020000C9494000C9494000C9494000C94CB01C8
:100030000C9494000C9494000C9494000C949400F0
:100040000C9494000C9494000C9494000C949400E0
:100050000C9494000C9494000C9494000C949400D0
:100060000C9494000C94940007634236B79BD8A775
:100070001A39685618AEBAAB558C1D3CB7CC5763CD
:10008000BD6DEDFD753EF6177231BF000000803F7B
:1000900008000000BE922449123EABAAAA2ABECD97
:1000A000CCCC4C3E00000080BEABAAAAAA3E000009
:1000B0000000BF000000803F000000000008417801
:1000C000D3BB4387D1133D190E3CC3BD4282AD2B38
:1000D0003E68EC8276BED98FE1A93E4C80EFFFBE30
:1000E00001C4FF7F3F00000000000B02100211243A
:1000F0001FBECFEFD4E0DEBFCDBF22E0A0E0B1E075
:1001000001C01D92A63AB207E1F710E0C6E7D0E0C1
:1001100004C02197FE010E940B06C537D107C9F71D
:100120000E9407020C9411060C940000FC0111823D
:10013000108281E090E09383828395838483978308
:10014000868368EC70E0CF0108960E94EA0008956B
:1001500008960E94C0010895289A08952898089545
:10016000CF93DF93EC01288139818C819D818217A7
:10017000930720F4CE010E94AC0003C0CE010E9480
:10018000AE0088819981019699838883873C910587
:10019000F0F06E817F81CE0108960E94C1019D839F
:1001A0008C838E819F81873C910511F0009739F4F3
:1001B0002A813B813195219531093B832A832A810C
:1001C0003B81820F931F9F838E8319821882DF9158
:1001D000CF9108952F923F924F925F926F927F92AC
:1001E0008F929F92AF92BF92CF92DF92EF92FF9247
:1001F0000F931F93CF93DF93CDB7DEB72A970FB638
:10020000F894DEBF0FBECDBF2C013B0181E0681A20
:100210007108D2016D927C92F201EA56FE4F108273
:1002200011821282138282010A5F1F4FC12CD12CCE
:1002300076011A821982C301A0E0B0E08D839E830B
:10024000AF83B887120196E6291A9EEF390AA0E01B
:10025000B0E0BA87A9876D817E818F8198850E94E1
:10026000280369837A838B839C839B01AC01C7013C
:10027000B6010E94870220E030E048EC52E40E9480
:10028000DA034B015C0120E030E040E051E40E94E1
:100290008202181674F023E333ED41E654E4C501FD
:1002A000B4010E948702F10160837183828393838A
:1002B0001AC020E030E040E851E4C501B4010E94DA
:1002C000160220E030E048EE52E40E94870220E06F
:1002D00030E040E450E40E944704D1016D937D93E7
:1002E0008D939C931397F101208131814281538139
:1002F00069817A818B819C810E94DA030E94970434
:100300000E94F902D8016D937D938D0120E030E0C9
:1003100040E85FE3C701B6010E9416026B017C0151
:10032000E985FA853196FA87E9876E167F0608F027
:1003300092CFF201EA56FE4F6083718382839383EA
:10034000D20112968D929D92AD92BC9215972A96EB
:100350000FB6F894DEBF0FBECDBFDF91CF911F91D6
:100360000F91FF90EF90DF90CF90BF90AF909F9054
:100370008F907F906F905F904F903F902F90089557
:1003800008956D5F7F4F660F771F860F971FFC01E3
:100390008081918108951F920F920FB60F921124C0
:1003A0002F933F934F935F936F937F938F939F937D
:1003B000AF93BF93EF93FF9380E091E00E94B00072
:1003C000FF91EF91BF91AF919F918F917F916F912D
:1003D0005F914F913F912F910F900FBE0F901F9003
:1003E00018958FEF84B910928000E1E8F0E0108258
:1003F000808189608083EFE6F0E080818260808385
:1004000087EC90E0909389008093880008950E9483
:10041000F1017894FFCF80E091E00E94960008956A
:1004200080E091E00E94A80008955058BB27AA27B9
:100430000E942D020C94A0030E94920338F00E94A7
:10044000990320F039F49F3F19F426F40C948F039C
:100450000EF4E095E7FB0C948903E92F0E94B103A9
:1004600058F3BA17620773078407950720F079F4E9
:10047000A6F50C94D3030EF4E0950B2EBA2FA02D05
:100480000B01B90190010C01CA01A0011124FF2741
:10049000591B99F0593F50F4503E68F11A16F0403C
:1004A000A22F232F342F4427585FF3CF469537953B
:1004B0002795A795F0405395C9F77EF41F16BA0B00
:1004C000620B730B840BBAF09150A1F0FF0FBB1FAE
:1004D000661F771F881FC2F70EC0BA0F621F731FF7
:1004E000841F48F4879577956795B795F7959E3F54
:1004F00008F0B0CF9395880F08F09927EE0F9795E5
:10050000879508950E94650308F481E008950E948C
:100510009B020C94A0030E94990358F00E9492033E
:1005200040F029F45F3F29F00C94890351110C9499
:10053000D4030C948F030E94B10368F39923B1F3A1
:10054000552391F3951B550BBB27AA2762177307F9
:10055000840738F09F5F5F4F220F331F441FAA1F8D
:10056000A9F335D00E2E3AF0E0E832D09150504049
:10057000E695001CCAF72BD0FE2F29D0660F771FF7
:10058000881FBB1F261737074807AB07B0E809F0DD
:10059000BB0B802DBF01FF2793585F4F3AF09E3F62
:1005A000510578F00C9489030C94D4035F3FE4F375
:1005B000983ED4F3869577956795B795F7959F5FA5
:1005C000C9F7880F911D9695879597F90895E1E0F1
:1005D000660F771F881FBB1F621773078407BA0750
:1005E00020F0621B730B840BBA0BEE1F88F7E095AB
:1005F00008950E94B90388F09F5798F0B92F992762
:10060000B751B0F0E1F0660F771F881F991F1AF0FD
:10061000BA95C9F714C0B13091F00E94D303B1E08C
:1006200008950C94D303672F782F8827B85F39F08B
:10063000B93FCCF3869577956795B395D9F73EF496
:1006400090958095709561957F4F8F4F9F4F08953E
:10065000E89409C097FB3EF490958095709561955C
:100660007F4F8F4F9F4F9923A9F0F92F96E9BB2712
:100670009395F695879577956795B795F111F8CF8E
:10068000FAF4BB0F11F460FF1BC06F5F7F4F8F4FF9
:100690009F4F16C0882311F096E911C0772321F0EF
:1006A0009EE8872F762F05C0662371F096E8862F87
:1006B00070E060E02AF09A95660F771F881FDAF7DE
:1006C000880F9695879597F90895990F0008550F0B
:1006D000AA0BE0E8FEEF16161706E807F907C0F0C8
:1006E00012161306E407F50798F0621B730B840BD0
:1006F000950B39F40A2661F0232B242B252B21F4AA
:1007000008950A2609F4A140A6958FEF811D811D49
:10071000089597F99F6780E870E060E008959FEF83
:1007200080EC089500240A94161617061806090688
:10073000089500240A941216130614060506089557
:10074000092E0394000C11F4882352F0BB0F40F4DF
:10075000BF2B11F460FF04C06F5F7F4F8F4F9F4F1F
:10076000089557FD9058440F551F59F05F3F71F0A1
:100770004795880F97FB991F61F09F3F79F0879508
:100780000895121613061406551FF2CF4695F1DF91
:1007900008C0161617061806991FF1CF8695710521
:1007A000610508940895E894BB2766277727CB0155
:1007B00097F908950E94ED030C94A0030E94920300
:1007C00038F00E94990320F0952311F00C948903CE
:1007D0000C948F0311240C94D4030E94B10370F382
:1007E000959FC1F3950F50E0551F629FF001729FD6
:1007F000BB27F00DB11D639FAA27F00DB11DAA1FE5
:10080000649F6627B00DA11D661F829F2227B00D31
:10081000A11D621F739FB00DA11D621F839FA00DBC
:10082000611D221F749F3327A00D611D231F849F0C
:10083000600D211D822F762F6A2F11249F57504063
:100840009AF0F1F088234AF0EE0FFF1FBB1F661FDE
:10085000771F881F91505040A9F79E3F510580F0A7
:100860000C9489030C94D4035F3FE4F3983ED4F3D3
:10087000869577956795B795F795E7959F5FC1F74B
:10088000FE2B880F911D9695879597F90895FA018B
:10089000EE0FFF1F309621053105A1F1611571059D
:1008A00061F48038BFE39B0749F168949038810573
:1008B00061F08038BFEF9B0741F099234AF5FF3F75
:1008C000E1053105210519F1E8940894E795D9016E
:1008D000AA2329F4AB2FBE2FF85FD0F310C0FF5F1F
:1008E00070F4A695E0F7F73950F019F0FF3A38F4B4
:1008F0009F779F930DD00F9007FC9058089546F076
:100900000C948F0360E070E080E89FE308954FE768
:100910009F775F934F933F932F930E948F052F9163
:100920003F914F915F910E94DA030C94C3040E949F
:10093000B903E8F09E37E8F09639B8F49E3848F4E9
:10094000672F782F8827985FF9CF869577956795D9
:1009500093959539D0F3B62FB1706B0F711D811D32
:1009600020F487957795679593950C94F5040C94EE
:1009700010050C94D40329F416F00C9489030C94FC
:10098000D3030C948F030E94B903A8F39638A0F701
:1009900007F80F92E8942BE33AEA48EB5FE70E94EE
:1009A000F0030F920F920F924DB75EB70F920E9415
:1009B000D705E8E6F0E00E941E054F915F91EF91A8
:1009C000FF91E595EE1FFF1F49F0FE57E0684427B1
:1009D000EE0F441FFA95E1F74195550B0E94510522
:1009E0000F9007FE0C9445050895882371F4772332
:1009F00021F09850872B762F07C0662311F4992792
:100A00000DC09051862B70E060E02AF09A95660F39
:100A1000771F881FDAF7880F9695879597F90895BD
:100A20009F3F31F0915020F4879577956795B79562
:100A3000880F911D9695879597F90895DF93CF9329
:100A40001F930F93FF92EF92DF927B018C016894CA
:100A500006C0DA2EEF010E94ED03FE01E894A59195
:100A60002591359145915591A6F3EF010E942D02F4
:100A7000FE019701A801DA9469F7DF90EF90FF90EB
:100A80000F911F91CF91DF9108959B01AC0160E020
:100A900070E080E89FE30C9487020C9489030C9427
:100AA00010050E94B903D8F39923C9F3940F511D7F
:100AB000A3F39150504094F059F0882332F0660F20
:100AC000771F881F91505040C1F79E3F51052CF76A
:100AD000880F911D9695879597F908955F3FACF023
:100AE000983E9CF0BB27869577956795B79508F457
:100AF000B1609395C1F7BB0F58F711F460FFE8CFD1
:100B00006F5F7F4F8F4F9F4FE3CF0C94D40316F04E
:100B10000C9410050C948F0368940C9489030E9424
:100B2000B903A8F39923C1F3AEF3DF93CF931F93D7
:100B30000F93FF92C92FDD2788232AF02197660F94
:100B4000771F881FDAF720E030E040E85FEB9FE393
:100B5000883920F0803E38F021968F770E94160267
:100B6000E0E9F0E004C00E941602EDEBF0E00E9424
:100B70001E058B01BE01EC01FB2E6F5771097595A7
:100B8000771F880B990B0E942A0328E132E741E383
:100B90005FE30E94ED03AF2D9801AE01FF900F912E
:100BA0001F91CF91DF910E942D020C94A003FA01B6
:100BB000DC01AA0FBB1F9B01AC01BF5728F4222701
:100BC00033274427507820C0B75190F4AB2F00242E
:100BD000469537952795011CA395D2F3002071F017
:100BE000220F331F441FB395DAF30ED00C94150275
:100BF00061307105A0E88A07B94630F49B01AC0169
:100C00006627772788279078309621F020833183D4
:100C1000428353830895EE0FFF1F0590F491E02D5A
:100C2000099410E0C6E7D0E004C0FE010E940B0664
:0C0C30002196C737D107C9F7F894FFCF11
:00000001FF
