S01100006F7070676176655F372E737265638B
S11300000C9434000C943E000C943E000C943E007E
S11300100C943E000C943E000C943E000C943E0064
S11300200C943E000C943E000C943E000C943E0054
S11300300C943E000C943E000C943E000C943E0044
S11300400C943E000C943E000C943E000C943E0034
S11300500C943E000C943E000C943E000C943E0024
S11300600C943E000C943E0011241FBECFEFD4E04C
S1130070DEBFCDBF0E9440000C944B000C940000E6
S113008081E084B915B817B818B8359B02C0289A0E
S10D0090FCCF2898FACFF894FFCFB4
S9030000FC
