:100000000C9434000C9446000C9446000C9446006A
:100010000C9446000C9446000C9446000C94460048
:100020000C9446000C9446000C9446000C94460038
:100030000C9446000C9446000C9446000C94460028
:100040000C9446000C9446000C9446000C94460018
:100050000C9446000C9448000C9446000C94460006
:100060000C9446000C94460011241FBECFEFD4E040
:10007000DEBFCDBF21E0A0E0B1E001C01D92A23003
:10008000B207E1F70E9466000C9475000C94000022
:100090001F920F920FB60F9211242F938F939F935D
:1000A00080917800909179009093010180930001F4
:1000B0008835924010F0289801C0289A9F918F911E
:1000C0002F910F900FBE0F901F90189581E4809391
:1000D0007C00EAE7F0E080818F6A80838FEF84B94B
:0E00E0008081806480837894FFCFF894FFCFF6
:00000001FF
