:100000000C9434000C9451000C9451000C94510049
:100010000C9451000C9451000C9451000C9451001C
:100020000C9451000C9451000C9451000C947900E4
:100030000C9451000C9451000C9451000C945100FC
:100040000C9451000C9451000C9451000C945100EC
:100050000C9451000C9451000C9451000C945100DC
:100060000C9451000C94510011241FBECFEFD4E02A
:10007000DEBFCDBF12E0A0E0B1E0EEEBF4E002C0E5
:1000800005900D92A039B107D9F722E0A0E9B2E0BE
:1000900001C01D92A639B207E1F70E9471000C94CD
:1000A0005D020C9400008FEF84B910928000E1E8AB
:1000B000F0E01082808189608083EFE6F0E080814B
:1000C0008260808387EC90E0909389008093880021
:1000D00081E480937C00EAE7F0E08081806880839F
:1000E00008950E9453007894FFCF289A0895289885
:1000F00008951F920F920FB60F9211242F933F93E2
:100100004F935F936F937F938F939F93AF93BF931F
:10011000EF93FF93EAE7F0E0808180648083808141
:1001200086FDFDCF60917800709179007093950203
:100130006093940280E090E00E94820127ED33EA10
:1001400044EA50E40E94E1000E9410020E94530120
:100150007093910260939002660F771FFB01E0504D
:10016000FF4F2081318180919202909193028217FA
:10017000930718F00E94750002C00E9477008091DA
:100180009202909193020196873C910528F49093F6
:1001900093028093920204C01092930210929202F2
:1001A000FF91EF91BF91AF919F918F917F916F914F
:1001B0005F914F913F912F910F900FBE0F901F9025
:1001C00018950E94F5000C94D6010E94CF0158F0BA
:1001D0000E94C80140F029F45F3F29F00C94BF0150
:1001E00051110C940A020C94C5010E94E70168F3B6
:1001F0009923B1F3552391F3951B550BBB27AA27E0
:1002000062177307840738F09F5F5F4F220F331F19
:10021000441FAA1FA9F335D00E2E3AF0E0E832D0E1
:1002200091505040E695001CCAF72BD0FE2F29D0E4
:10023000660F771F881FBB1F261737074807AB07B6
:10024000B0E809F0BB0B802DBF01FF2793585F4F2B
:100250003AF09E3F510578F00C94BF010C940A02CD
:100260005F3FE4F3983ED4F3869577956795B7950D
:10027000F7959F5FC9F7880F911D9695879597F918
:100280000895E1E0660F771F881FBB1F6217730791
:100290008407BA0720F0621B730B840BBA0BEE1FA6
:1002A00088F7E09508950E94EF0188F09F5798F035
:1002B000B92F9927B751B0F0E1F0660F771F881F6B
:1002C000991F1AF0BA95C9F714C0B13091F00E9485
:1002D0000902B1E008950C940902672F782F88274E
:1002E000B85F39F0B93FCCF3869577956795B395AC
:1002F000D9F73EF490958095709561957F4F8F4F1B
:100300009F4F0895E89409C097FB3EF4909580951F
:10031000709561957F4F8F4F9F4F9923A9F0F92FCB
:1003200096E9BB279395F695879577956795B79549
:10033000F111F8CFFAF4BB0F11F460FF1BC06F5F2F
:100340007F4F8F4F9F4F16C0882311F096E911C041
:10035000772321F09EE8872F762F05C0662371F062
:1003600096E8862F70E060E02AF09A95660F771F76
:10037000881FDAF7880F9695879597F9089597F96A
:100380009F6780E870E060E008959FEF80EC08953B
:1003900000240A9416161706180609060895002464
:1003A0000A9412161306140605060895092E0394DE
:1003B000000C11F4882352F0BB0F40F4BF2B11F452
:1003C00060FF04C06F5F7F4F8F4F9F4F089557FDB1
:1003D0009058440F551F59F05F3F71F04795880FB3
:1003E00097FB991F61F09F3F79F08795089512164A
:1003F00013061406551FF2CF4695F1DF08C01616F6
:1004000017061806991FF1CF8695710561050894A6
:100410000895E894BB2766277727CB0197F90895BD
:100420000E94EF01E8F09E37E8F09639B8F49E3864
:1004300048F4672F782F8827985FF9CF86957795AE
:10044000679593959539D0F3B62FB1706B0F711DE9
:10045000811D20F487957795679593950C943402C8
:100460000C944F020C940A02882371F4772321F034
:100470009850872B762F07C0662311F499270DC05B
:100480009051862B70E060E02AF09A95660F771FF6
:10049000881FDAF7880F9695879597F908959F3FFB
:1004A00031F0915020F4879577956795B795880F2F
:0E04B000911D9695879597F90895F894FFCFC2
:1004BE00000000000000000000000100010001002B
:1004CE000100010001000100010001000200020014
:1004DE0002000200020002000200020003000300FC
:1004EE0003000300030003000300040004000400E3
:1004FE0004000400050005000500050006000600C6
:10050E0006000600070007000700070008000800A5
:10051E0008000900090009000A000A000A000B0081
:10052E000B000B000C000C000D000D000D000E005A
:10053E000E000F000F00100010001100110012002D
:10054E0012001300130014001400150015001600FD
:10055E00170017001800190019001A001A001B00C6
:10056E001C001D001D001E001F001F00200021008A
:10057E002200230023002400250026002700280047
:10058E00290029002A002B002C002D002E002F0000
:10059E0030003100320033003400350036003800B0
:1005AE0039003A003B003C003D003E004000410057
:1005BE004200430045004600470048004A004B00F9
:1005CE004C004E004F005100520054005500560092
:1005DE00580059005B005D005E0060006100630022
:1005EE006500660068006A006B006D006F007000A9
:1005FE0072007400760078007A007B007D007F0028
:10060E00810083008500870089008B008D008F009C
:10061E0091009300950098009A009C009E00A00007
:10062E00A300A500A700AA00AC00AE00B100B30065
:10063E00B500B800BA00BD00BF00C200C400C700BC
:00000001FF
